{
  "contractName": "Exchange",
  "abi": [
    {
      "inputs": [
        {
          "internalType": "address",
          "name": "_feeAccount",
          "type": "address"
        },
        {
          "internalType": "uint256",
          "name": "_feePercent",
          "type": "uint256"
        }
      ],
      "stateMutability": "nonpayable",
      "type": "constructor"
    },
    {
      "anonymous": false,
      "inputs": [
        {
          "components": [
            {
              "internalType": "uint256",
              "name": "id",
              "type": "uint256"
            },
            {
              "internalType": "address",
              "name": "user",
              "type": "address"
            },
            {
              "components": [
                {
                  "internalType": "address",
                  "name": "contractAddress",
                  "type": "address"
                },
                {
                  "internalType": "uint256",
                  "name": "amount",
                  "type": "uint256"
                }
              ],
              "internalType": "struct Exchange._Token",
              "name": "offer",
              "type": "tuple"
            },
            {
              "components": [
                {
                  "internalType": "address",
                  "name": "contractAddress",
                  "type": "address"
                },
                {
                  "internalType": "uint256",
                  "name": "amount",
                  "type": "uint256"
                }
              ],
              "internalType": "struct Exchange._Token",
              "name": "demand",
              "type": "tuple"
            },
            {
              "internalType": "uint256",
              "name": "timestamp",
              "type": "uint256"
            }
          ],
          "indexed": false,
          "internalType": "struct Exchange._Order",
          "name": "order",
          "type": "tuple"
        },
        {
          "indexed": false,
          "internalType": "uint256",
          "name": "timestamp",
          "type": "uint256"
        }
      ],
      "name": "Cancel",
      "type": "event"
    },
    {
      "anonymous": false,
      "inputs": [
        {
          "indexed": false,
          "internalType": "address",
          "name": "user",
          "type": "address"
        },
        {
          "components": [
            {
              "internalType": "address",
              "name": "contractAddress",
              "type": "address"
            },
            {
              "internalType": "uint256",
              "name": "amount",
              "type": "uint256"
            }
          ],
          "indexed": false,
          "internalType": "struct Exchange._Token",
          "name": "token",
          "type": "tuple"
        },
        {
          "indexed": false,
          "internalType": "uint256",
          "name": "balance",
          "type": "uint256"
        }
      ],
      "name": "Deposit",
      "type": "event"
    },
    {
      "anonymous": false,
      "inputs": [
        {
          "indexed": false,
          "internalType": "uint256",
          "name": "id",
          "type": "uint256"
        },
        {
          "indexed": false,
          "internalType": "address",
          "name": "user",
          "type": "address"
        },
        {
          "components": [
            {
              "internalType": "address",
              "name": "contractAddress",
              "type": "address"
            },
            {
              "internalType": "uint256",
              "name": "amount",
              "type": "uint256"
            }
          ],
          "indexed": false,
          "internalType": "struct Exchange._Token",
          "name": "offer",
          "type": "tuple"
        },
        {
          "components": [
            {
              "internalType": "address",
              "name": "contractAddress",
              "type": "address"
            },
            {
              "internalType": "uint256",
              "name": "amount",
              "type": "uint256"
            }
          ],
          "indexed": false,
          "internalType": "struct Exchange._Token",
          "name": "demand",
          "type": "tuple"
        },
        {
          "indexed": false,
          "internalType": "uint256",
          "name": "timestamp",
          "type": "uint256"
        }
      ],
      "name": "Order",
      "type": "event"
    },
    {
      "anonymous": false,
      "inputs": [
        {
          "components": [
            {
              "internalType": "uint256",
              "name": "id",
              "type": "uint256"
            },
            {
              "internalType": "address",
              "name": "user",
              "type": "address"
            },
            {
              "components": [
                {
                  "internalType": "address",
                  "name": "contractAddress",
                  "type": "address"
                },
                {
                  "internalType": "uint256",
                  "name": "amount",
                  "type": "uint256"
                }
              ],
              "internalType": "struct Exchange._Token",
              "name": "offer",
              "type": "tuple"
            },
            {
              "components": [
                {
                  "internalType": "address",
                  "name": "contractAddress",
                  "type": "address"
                },
                {
                  "internalType": "uint256",
                  "name": "amount",
                  "type": "uint256"
                }
              ],
              "internalType": "struct Exchange._Token",
              "name": "demand",
              "type": "tuple"
            },
            {
              "internalType": "uint256",
              "name": "timestamp",
              "type": "uint256"
            }
          ],
          "indexed": false,
          "internalType": "struct Exchange._Order",
          "name": "order",
          "type": "tuple"
        },
        {
          "indexed": false,
          "internalType": "address",
          "name": "user",
          "type": "address"
        },
        {
          "indexed": false,
          "internalType": "uint256",
          "name": "timestamp",
          "type": "uint256"
        }
      ],
      "name": "Trade",
      "type": "event"
    },
    {
      "anonymous": false,
      "inputs": [
        {
          "indexed": false,
          "internalType": "address",
          "name": "user",
          "type": "address"
        },
        {
          "components": [
            {
              "internalType": "address",
              "name": "contractAddress",
              "type": "address"
            },
            {
              "internalType": "uint256",
              "name": "amount",
              "type": "uint256"
            }
          ],
          "indexed": false,
          "internalType": "struct Exchange._Token",
          "name": "token",
          "type": "tuple"
        },
        {
          "indexed": false,
          "internalType": "uint256",
          "name": "balance",
          "type": "uint256"
        }
      ],
      "name": "Withdraw",
      "type": "event"
    },
    {
      "inputs": [],
      "name": "feeAccount",
      "outputs": [
        {
          "internalType": "address",
          "name": "",
          "type": "address"
        }
      ],
      "stateMutability": "view",
      "type": "function",
      "constant": true
    },
    {
      "inputs": [],
      "name": "feePercent",
      "outputs": [
        {
          "internalType": "uint256",
          "name": "",
          "type": "uint256"
        }
      ],
      "stateMutability": "view",
      "type": "function",
      "constant": true
    },
    {
      "inputs": [
        {
          "internalType": "address",
          "name": "_user",
          "type": "address"
        },
        {
          "internalType": "address",
          "name": "_token",
          "type": "address"
        }
      ],
      "name": "balanceOf",
      "outputs": [
        {
          "internalType": "uint256",
          "name": "",
          "type": "uint256"
        }
      ],
      "stateMutability": "view",
      "type": "function",
      "constant": true
    },
    {
      "inputs": [
        {
          "components": [
            {
              "internalType": "address",
              "name": "contractAddress",
              "type": "address"
            },
            {
              "internalType": "uint256",
              "name": "amount",
              "type": "uint256"
            }
          ],
          "internalType": "struct Exchange._Token",
          "name": "_token",
          "type": "tuple"
        }
      ],
      "name": "deposit",
      "outputs": [],
      "stateMutability": "nonpayable",
      "type": "function"
    },
    {
      "inputs": [
        {
          "components": [
            {
              "internalType": "address",
              "name": "contractAddress",
              "type": "address"
            },
            {
              "internalType": "uint256",
              "name": "amount",
              "type": "uint256"
            }
          ],
          "internalType": "struct Exchange._Token",
          "name": "_token",
          "type": "tuple"
        }
      ],
      "name": "withdraw",
      "outputs": [],
      "stateMutability": "nonpayable",
      "type": "function"
    },
    {
      "inputs": [],
      "name": "depositEther",
      "outputs": [],
      "stateMutability": "payable",
      "type": "function",
      "payable": true
    },
    {
      "inputs": [
        {
          "internalType": "uint256",
          "name": "_amount",
          "type": "uint256"
        }
      ],
      "name": "withdrawEther",
      "outputs": [],
      "stateMutability": "nonpayable",
      "type": "function"
    },
    {
      "inputs": [
        {
          "internalType": "uint256",
          "name": "_id",
          "type": "uint256"
        }
      ],
      "name": "order",
      "outputs": [
        {
          "components": [
            {
              "internalType": "uint256",
              "name": "id",
              "type": "uint256"
            },
            {
              "internalType": "address",
              "name": "user",
              "type": "address"
            },
            {
              "components": [
                {
                  "internalType": "address",
                  "name": "contractAddress",
                  "type": "address"
                },
                {
                  "internalType": "uint256",
                  "name": "amount",
                  "type": "uint256"
                }
              ],
              "internalType": "struct Exchange._Token",
              "name": "offer",
              "type": "tuple"
            },
            {
              "components": [
                {
                  "internalType": "address",
                  "name": "contractAddress",
                  "type": "address"
                },
                {
                  "internalType": "uint256",
                  "name": "amount",
                  "type": "uint256"
                }
              ],
              "internalType": "struct Exchange._Token",
              "name": "demand",
              "type": "tuple"
            },
            {
              "internalType": "uint256",
              "name": "timestamp",
              "type": "uint256"
            }
          ],
          "internalType": "struct Exchange._Order",
          "name": "",
          "type": "tuple"
        }
      ],
      "stateMutability": "view",
      "type": "function",
      "constant": true
    },
    {
      "inputs": [
        {
          "internalType": "uint256",
          "name": "_id",
          "type": "uint256"
        }
      ],
      "name": "openOrder",
      "outputs": [
        {
          "components": [
            {
              "internalType": "uint256",
              "name": "id",
              "type": "uint256"
            },
            {
              "internalType": "address",
              "name": "user",
              "type": "address"
            },
            {
              "components": [
                {
                  "internalType": "address",
                  "name": "contractAddress",
                  "type": "address"
                },
                {
                  "internalType": "uint256",
                  "name": "amount",
                  "type": "uint256"
                }
              ],
              "internalType": "struct Exchange._Token",
              "name": "offer",
              "type": "tuple"
            },
            {
              "components": [
                {
                  "internalType": "address",
                  "name": "contractAddress",
                  "type": "address"
                },
                {
                  "internalType": "uint256",
                  "name": "amount",
                  "type": "uint256"
                }
              ],
              "internalType": "struct Exchange._Token",
              "name": "demand",
              "type": "tuple"
            },
            {
              "internalType": "uint256",
              "name": "timestamp",
              "type": "uint256"
            }
          ],
          "internalType": "struct Exchange._Order",
          "name": "",
          "type": "tuple"
        }
      ],
      "stateMutability": "view",
      "type": "function",
      "constant": true
    },
    {
      "inputs": [
        {
          "internalType": "uint256",
          "name": "_id",
          "type": "uint256"
        }
      ],
      "name": "cancelledOrder",
      "outputs": [
        {
          "components": [
            {
              "internalType": "uint256",
              "name": "id",
              "type": "uint256"
            },
            {
              "internalType": "address",
              "name": "user",
              "type": "address"
            },
            {
              "components": [
                {
                  "internalType": "address",
                  "name": "contractAddress",
                  "type": "address"
                },
                {
                  "internalType": "uint256",
                  "name": "amount",
                  "type": "uint256"
                }
              ],
              "internalType": "struct Exchange._Token",
              "name": "offer",
              "type": "tuple"
            },
            {
              "components": [
                {
                  "internalType": "address",
                  "name": "contractAddress",
                  "type": "address"
                },
                {
                  "internalType": "uint256",
                  "name": "amount",
                  "type": "uint256"
                }
              ],
              "internalType": "struct Exchange._Token",
              "name": "demand",
              "type": "tuple"
            },
            {
              "internalType": "uint256",
              "name": "timestamp",
              "type": "uint256"
            }
          ],
          "internalType": "struct Exchange._Order",
          "name": "",
          "type": "tuple"
        }
      ],
      "stateMutability": "view",
      "type": "function",
      "constant": true
    },
    {
      "inputs": [
        {
          "internalType": "uint256",
          "name": "_id",
          "type": "uint256"
        }
      ],
      "name": "filledOrder",
      "outputs": [
        {
          "components": [
            {
              "internalType": "uint256",
              "name": "id",
              "type": "uint256"
            },
            {
              "internalType": "address",
              "name": "user",
              "type": "address"
            },
            {
              "components": [
                {
                  "internalType": "address",
                  "name": "contractAddress",
                  "type": "address"
                },
                {
                  "internalType": "uint256",
                  "name": "amount",
                  "type": "uint256"
                }
              ],
              "internalType": "struct Exchange._Token",
              "name": "offer",
              "type": "tuple"
            },
            {
              "components": [
                {
                  "internalType": "address",
                  "name": "contractAddress",
                  "type": "address"
                },
                {
                  "internalType": "uint256",
                  "name": "amount",
                  "type": "uint256"
                }
              ],
              "internalType": "struct Exchange._Token",
              "name": "demand",
              "type": "tuple"
            },
            {
              "internalType": "uint256",
              "name": "timestamp",
              "type": "uint256"
            }
          ],
          "internalType": "struct Exchange._Order",
          "name": "",
          "type": "tuple"
        }
      ],
      "stateMutability": "view",
      "type": "function",
      "constant": true
    },
    {
      "inputs": [
        {
          "internalType": "address",
          "name": "_user",
          "type": "address"
        },
        {
          "internalType": "address",
          "name": "_token",
          "type": "address"
        }
      ],
      "name": "offerBalance",
      "outputs": [
        {
          "internalType": "uint256",
          "name": "",
          "type": "uint256"
        }
      ],
      "stateMutability": "view",
      "type": "function",
      "constant": true
    },
    {
      "inputs": [
        {
          "components": [
            {
              "internalType": "address",
              "name": "contractAddress",
              "type": "address"
            },
            {
              "internalType": "uint256",
              "name": "amount",
              "type": "uint256"
            }
          ],
          "internalType": "struct Exchange._Token",
          "name": "_offer",
          "type": "tuple"
        },
        {
          "components": [
            {
              "internalType": "address",
              "name": "contractAddress",
              "type": "address"
            },
            {
              "internalType": "uint256",
              "name": "amount",
              "type": "uint256"
            }
          ],
          "internalType": "struct Exchange._Token",
          "name": "_demand",
          "type": "tuple"
        }
      ],
      "name": "placeOrder",
      "outputs": [],
      "stateMutability": "nonpayable",
      "type": "function"
    },
    {
      "inputs": [
        {
          "internalType": "uint256",
          "name": "_id",
          "type": "uint256"
        }
      ],
      "name": "cancelOrder",
      "outputs": [],
      "stateMutability": "nonpayable",
      "type": "function"
    },
    {
      "inputs": [
        {
          "internalType": "uint256",
          "name": "_id",
          "type": "uint256"
        }
      ],
      "name": "fillOrder",
      "outputs": [],
      "stateMutability": "nonpayable",
      "type": "function"
    }
  ],
  "bytecode": "0x6080604052600060035534801561001557600080fd5b506040516117453803806117458339810160408190526100349161005d565b600080546001600160a01b0319166001600160a01b039390931692909217909155600155610097565b6000806040838503121561007057600080fd5b82516001600160a01b038116811461008757600080fd5b6020939093015192949293505050565b61169f806100a66000396000f3fe6080604052600436106100e85760003560e01c80635c7a2a801161008a57806398ea5fca1161005957806398ea5fca14610281578063b069a18014610289578063dc647791146102a9578063f7888aec146102c957600080fd5b80635c7a2a80146101f357806365e17c9d1461021357806367b830ad1461024b5780637fd6f15c1461026b57600080fd5b80633bed33ce116100c65780633bed33ce146101715780633c5654171461019357806345dca66b146101b3578063514fcac7146101d357600080fd5b806321603f43146100ed57806324dcf0a9146101235780633245b73314610151575b600080fd5b3480156100f957600080fd5b5061010d610108366004611353565b6102e9565b60405161011a91906113d7565b60405180910390f35b34801561012f57600080fd5b5061014361013e366004611401565b610374565b60405190815260200161011a565b34801561015d57600080fd5b5061010d61016c366004611353565b6103a1565b34801561017d57600080fd5b5061019161018c366004611353565b61042b565b005b34801561019f57600080fd5b506101916101ae366004611499565b610484565b3480156101bf57600080fd5b5061010d6101ce366004611353565b610529565b3480156101df57600080fd5b506101916101ee366004611353565b6105b2565b3480156101ff57600080fd5b5061019161020e366004611499565b610793565b34801561021f57600080fd5b50600054610233906001600160a01b031681565b6040516001600160a01b03909116815260200161011a565b34801561025757600080fd5b50610191610266366004611353565b61087a565b34801561027757600080fd5b5061014360015481565b610191610b76565b34801561029557600080fd5b506101916102a43660046114b5565b610ba0565b3480156102b557600080fd5b5061010d6102c4366004611353565b610f5a565b3480156102d557600080fd5b506101436102e4366004611401565b610fe1565b6102f16112d3565b50600090815260046020818152604092839020835160a0810185528154815260018201546001600160a01b0390811682850152855180870187526002840154821681526003840154818601528287015285518087019096529382015490931684526005810154918401919091526060820192909252600690910154608082015290565b6001600160a01b038083166000908152600860209081526040808320938516835292905220545b92915050565b6103a96112d3565b50600090815260076020908152604091829020825160a0810184528154815260018201546001600160a01b03908116828501528451808601865260028401548216815260038401548186015282860152845180860190955260048301541684526005820154928401929092526060820192909252600690910154608082015290565b61045333604051806040016040528060006001600160a01b031681526020018481525061100c565b604051339082156108fc029083906000818181858888f19350505050158015610480573d6000803e3d6000fd5b5050565b80516001600160a01b031661049857600080fd5b8051602082015160405163a9059cbb60e01b815233600482015260248101919091526000916001600160a01b03169063a9059cbb906044016020604051808303816000875af11580156104ef573d6000803e3d6000fd5b505050506040513d601f19601f8201168201806040525081019061051391906114e1565b90508061051f57600080fd5b610480338361100c565b6105316112d3565b50600090815260056020818152604092839020835160a0810185528154815260018201546001600160a01b039081168285015285518087018752600284015482168152600384015481860152828701528551808701909652600483015416855292810154918401919091526060820192909252600690910154608082015290565b600081815260046020818152604092839020835160a0810185528154815260018201546001600160a01b039081168285015285518087018752600284015482168152600384015481860152828701528551808701909652938201549093168452600581015491840191909152606082019290925260069091015460808201528051821461063e57600080fd5b60208101516001600160a01b0316331461065757600080fd5b6000828152600660205260409020541561067057600080fd5b61067e33826040015161108f565b61068c33826040015161112c565b60008281526006602081815260408084208551815585830151600180830180546001600160a01b03199081166001600160a01b0394851617909155888501518051600280870180548516928716929092179091559087015160038087019190915560608b01518051600480890180548716929098169190911790965588015160058088019190915560808c0151968a019690965596859052858920898155928301805483169055820180548216905594810187905590810180549094169093558201849055910191909155517f80ce33e71d3225ab09d552f61046e836ab4014b9f7ad067e244c927103ab7e8f906107879083904290611503565b60405180910390a15050565b80516001600160a01b03166107a757600080fd5b805160208201516040516323b872dd60e01b815233600482015230602482015260448101919091526000916001600160a01b0316906323b872dd906064016020604051808303816000875af1158015610804573d6000803e3d6000fd5b505050506040513d601f19601f8201168201806040525081019061082891906114e1565b9050806108705760405162461bcd60e51b815260206004820152601160248201527021b7bab6323713ba103a3930b739b332b960791b60448201526064015b60405180910390fd5b6104803383611190565b600081815260056020818152604092839020835160a0810185528154815260018201546001600160a01b03908116828501528551808701875260028401548216815260038401548186015282870152855180870190965260048301541685529281015491840191909152606082019290925260069091015460808201528051821461090457600080fd5b60208101516001600160a01b031633141561091e57600080fd5b600061093233836060015160000151610fe1565b905081606001516020015181101561094957600080fd5b6020808301516001600160a01b0390811660009081526008835260408082208187018051519094168352845290205490519091015181101561098a57600080fd5b60006109b56127106109af6001548760400151602001516111f590919063ffffffff16565b90611208565b9050600060405180604001604052808660400151600001516001600160a01b031681526020016109f68488604001516020015161121490919063ffffffff16565b8152509050610a09338660600151611220565b610a1b8560200151866060015161112c565b610a2d8560200151866040015161108f565b610a37338261112c565b60005460408051808201825290870151516001600160a01b03908116825260208201859052610a6792169061112c565b60008681526007602090815260408083208851815588830151600180830180546001600160a01b03199081166001600160a01b03948516179091558b8501518051600280870180548516928716929092179091559087015160038087019190915560608e01518051600480890180548716929098169190911790965588015160058088019190915560808f015160069788015597889052868920898155938401805484169055908301805483169055820187905591810180549092169091559283018490559190910191909155517f29264bdb6f41e01f6e6dd2741d900c896ba0fd2cb954aef0b180aaebb27d7b3c90610b669087903390429061151f565b60405180910390a1505050505050565b610b9e33604051806040016040528060006001600160a01b0316815260200134815250611190565b565b6000826020015111610bf45760405162461bcd60e51b815260206004820152601c60248201527f6f66666572206d7573742062652067726561746572207468616e2030000000006044820152606401610867565b6000816020015111610c485760405162461bcd60e51b815260206004820152601d60248201527f64656d616e64206d7573742062652067726561746572207468616e20300000006044820152606401610867565b60208083015133600090815260028352604080822086516001600160a01b0316835290935291909120541015610ccb5760405162461bcd60e51b815260206004820152602260248201527f6f6666657220746f6f206869676820666f7220617661696c61626c652066756e604482015261647360f01b6064820152608401610867565b600354610cd9906001611290565b6003819055506000600354905060004290506040518060a00160405280838152602001336001600160a01b0316815260200185815260200184815260200182815250600460008481526020019081526020016000206000820151816000015560208201518160010160006101000a8154816001600160a01b0302191690836001600160a01b0316021790555060408201518160020160008201518160000160006101000a8154816001600160a01b0302191690836001600160a01b0316021790555060208201518160010155505060608201518160040160008201518160000160006101000a8154816001600160a01b0302191690836001600160a01b03160217905550602082015181600101555050608082015181600601559050506040518060a00160405280838152602001336001600160a01b0316815260200185815260200184815260200182815250600560008481526020019081526020016000206000820151816000015560208201518160010160006101000a8154816001600160a01b0302191690836001600160a01b0316021790555060408201518160020160008201518160000160006101000a8154816001600160a01b0302191690836001600160a01b0316021790555060208201518160010155505060608201518160040160008201518160000160006101000a8154816001600160a01b0302191690836001600160a01b0316021790555060208201518160010155505060808201518160060155905050610f0b3385611220565b610f15338561129c565b7f24b391b5836c2ebb57e3ab4db39f5b808fce3e72e98de294b91e9f88b8383b248233868685604051610f4c959493929190611549565b60405180910390a150505050565b610f626112d3565b50600090815260066020818152604092839020835160a0810185528154815260018201546001600160a01b03908116828501528551808701875260028401548216815260038401548186015282870152855180870190965260048301541685526005820154928501929092526060820193909352910154608082015290565b6001600160a01b03918216600090815260026020908152604080832093909416825291909152205490565b806020015161101f338360000151610fe1565b101561102a57600080fd5b6110348282611220565b6001600160a01b038083166000908152600260209081526040808320855190941683529290528190205490517ff28fbb8ad68b19d99c493ff08b1d8b22ba7ea81efe80d5eeb99f033d8ce3801c9161078791859185916115a5565b6020808201516001600160a01b03808516600090815260088452604080822086519093168252919093529091205410156110c857600080fd5b6020808201516001600160a01b0380851660009081526008845260408082208651909316825291909352909120546110ff91611214565b6001600160a01b039283166000908152600860209081526040808320945190951682529290925291902055565b6020808201516001600160a01b03808516600090815260028452604080822086519093168252919093529091205461116391611290565b6001600160a01b039283166000908152600260209081526040808320945190951682529290925291902055565b61119a828261112c565b6001600160a01b038083166000908152600260209081526040808320855190941683529290528190205490517ff051a5595626324bcdb061f349bdfc926e90ac44ebe4a22571b62ee5ab6ef5199161078791859185916115a5565b600061120182846115f9565b9392505050565b60006112018284611618565b6000611201828461163a565b6020808201516001600160a01b038085166000908152600284526040808220865190931682529190935290912054101561125957600080fd5b6020808201516001600160a01b03808516600090815260028452604080822086519093168252919093529091205461116391611214565b60006112018284611651565b6020808201516001600160a01b0380851660009081526008845260408082208651909316825291909352909120546110ff91611290565b6040518060a001604052806000815260200160006001600160a01b0316815260200161131b604051806040016040528060006001600160a01b03168152602001600081525090565b8152602001611346604051806040016040528060006001600160a01b03168152602001600081525090565b8152602001600081525090565b60006020828403121561136557600080fd5b5035919050565b805182526020808201516001600160a01b031690830152604080820151906113a99084018280516001600160a01b03168252602090810151910152565b50606081015180516001600160a01b03166080840152602081015160a0840152506080015160c09190910152565b60e0810161039b828461136c565b80356001600160a01b03811681146113fc57600080fd5b919050565b6000806040838503121561141457600080fd5b61141d836113e5565b915061142b602084016113e5565b90509250929050565b60006040828403121561144657600080fd5b6040516040810181811067ffffffffffffffff8211171561147757634e487b7160e01b600052604160045260246000fd5b604052905080611486836113e5565b8152602083013560208201525092915050565b6000604082840312156114ab57600080fd5b6112018383611434565b600080608083850312156114c857600080fd5b6114d28484611434565b915061142b8460408501611434565b6000602082840312156114f357600080fd5b8151801515811461120157600080fd5b6101008101611512828561136c565b8260e08301529392505050565b610120810161152e828661136c565b6001600160a01b039390931660e08201526101000152919050565b8581526001600160a01b038516602082015260e0810161157f604083018680516001600160a01b03168252602090810151910152565b83516001600160a01b0316608083015260209093015160a082015260c001529392505050565b6001600160a01b0384168152608081016115d5602083018580516001600160a01b03168252602090810151910152565b826060830152949350505050565b634e487b7160e01b600052601160045260246000fd5b6000816000190483118215151615611613576116136115e3565b500290565b60008261163557634e487b7160e01b600052601260045260246000fd5b500490565b60008282101561164c5761164c6115e3565b500390565b60008219821115611664576116646115e3565b50019056fea264697066735822122020db76aa515b5a74f10dcdc5d32c350b273a4aca0bf2b506b329a65078684d4b64736f6c634300080c0033",
  "immutableReferences": {},
  "source": "pragma solidity ^0.8.0;\n\nimport \"./GuilToken.sol\";\nimport \"@openzeppelin/contracts/utils/math/SafeMath.sol\";\n\n// Deposit & Withdraw Funds\n// Manage Orders - Make or Cancel\n// Handle Trades - Charge fees\n\n// TODO:\n// [x] Set the fee account\n// [x] Deposit Ether\n// [x] Withdraw Ether\n// [x] Deposit Tokens\n// [x] Withdraw Tokens\n// [x] Check balances\n// [x] Place order\n// [x] Cancel order\n// [x] Fill order\n// [x] Charge fees\n\ncontract Exchange {\n  using SafeMath for uint;\n\n  address public feeAccount;\n\n  uint public feePercent;\n\n  mapping(address => mapping(address => uint)) internal balances;\n\n  uint internal ordersCount = 0;\n\n  mapping(uint => _Order) internal orders;\n\n  mapping(uint => _Order) internal openOrders;\n\n  mapping(uint => _Order) internal cancelledOrders;\n\n  mapping(uint => _Order) internal filledOrders;\n\n  mapping(address => mapping(address => uint)) internal offerBalances;\n\n  event Deposit(address user, _Token token, uint balance);\n\n  event Withdraw(address user, _Token token, uint balance);\n\n  event Order(uint id, address user, _Token offer, _Token demand, uint timestamp);\n\n  event Trade(_Order order, address user, uint timestamp);\n\n  event Cancel(_Order order, uint timestamp);\n\n  struct _Token {\n    address contractAddress;\n    uint amount;\n  }\n\n  struct _Order {\n    uint id;\n    address user;\n    _Token offer;\n    _Token demand;\n    uint timestamp;\n  }\n\n  constructor(address _feeAccount, uint _feePercent) {\n    feeAccount = _feeAccount;\n    feePercent = _feePercent;\n  }\n\n  function balanceOf(address _user, address _token) public view returns (uint) {\n    return balances[_user][_token];\n  }\n\n  function deposit(_Token memory _token) public {\n    require(_token.contractAddress != address(0));\n    bool _transferred = GuilToken(_token.contractAddress).transferFrom(msg.sender, address(this), _token.amount);\n    require(_transferred, \"Couldn't transfer\");\n    _handleDeposit(msg.sender, _token);\n  }\n\n  function withdraw(_Token memory _token) public {\n    require(_token.contractAddress != address(0));\n\n    bool _transferred = GuilToken(_token.contractAddress).transfer(msg.sender, _token.amount);\n    require(_transferred);\n\n    _handleWithdraw(msg.sender, _token);\n  }\n\n  function depositEther() public payable {\n    _handleDeposit(msg.sender, _Token(address(0), msg.value));\n  }\n\n  function withdrawEther(uint _amount) public {\n    _handleWithdraw(msg.sender, _Token(address(0), _amount));\n    payable(msg.sender).transfer(_amount);\n  }\n\n  function order(uint _id) public view returns (_Order memory) {\n    return orders[_id];\n  }\n\n  function openOrder(uint _id) public view returns (_Order memory) {\n    return openOrders[_id];\n  }\n\n  function cancelledOrder(uint _id) public view returns (_Order memory) {\n    return cancelledOrders[_id];\n  }\n\n  function filledOrder(uint _id) public view returns (_Order memory) {\n    return filledOrders[_id];\n  }\n\n  function offerBalance(address _user, address _token) public view returns (uint) {\n    return offerBalances[_user][_token];\n  }\n\n  function placeOrder(_Token memory _offer, _Token memory _demand) public {\n    require(_offer.amount > 0, \"offer must be greater than 0\");\n    require(_demand.amount > 0, \"demand must be greater than 0\");\n    require(balances[msg.sender][_offer.contractAddress] >= _offer.amount, \"offer too high for available funds\");\n\n    ordersCount = ordersCount.add(1);\n    uint _id = ordersCount;\n    uint _timestamp = block.timestamp;\n\n    orders[_id] = _Order(_id, msg.sender, _offer, _demand, _timestamp);\n    openOrders[_id] = _Order(_id, msg.sender, _offer, _demand, _timestamp);\n    _subtractFromBalance(msg.sender, _offer);\n    _addToOfferBalance(msg.sender, _offer);\n\n    emit Order(_id, msg.sender, _offer, _demand, _timestamp);\n  }\n\n  function cancelOrder(uint _id) public {\n    _Order memory _order = orders[_id];\n\n    require(_order.id == _id);\n    require(_order.user == msg.sender);\n    require(cancelledOrders[_id].id == 0);\n\n    _subtractFromOfferBalance(msg.sender, _order.offer);\n    _addToBalance(msg.sender, _order.offer);\n\n    cancelledOrders[_id] = _order;\n    delete openOrders[_id];\n\n    emit Cancel(_order, block.timestamp);\n  }\n\n  function fillOrder(uint _id) public {\n    _Order memory _order = openOrders[_id];\n\n    require(_order.id == _id);\n    require(_order.user != msg.sender);\n\n    uint _takerBalance = balanceOf(msg.sender, _order.demand.contractAddress);\n    require(_takerBalance >= _order.demand.amount);\n\n    uint _sellerBalance = offerBalances[_order.user][_order.offer.contractAddress];\n    require(_sellerBalance >= _order.offer.amount);\n\n    uint _feeAmount = _order.offer.amount.mul(feePercent).div(10000);\n    _Token memory _feeSubtractedOffer = _Token(_order.offer.contractAddress, _order.offer.amount.sub(_feeAmount));\n\n    _subtractFromBalance(msg.sender, _order.demand);\n    _addToBalance(_order.user, _order.demand);\n\n    _subtractFromOfferBalance(_order.user, _order.offer);\n    _addToBalance(msg.sender, _feeSubtractedOffer);\n\n    _addToBalance(feeAccount, _Token(_order.offer.contractAddress, _feeAmount));\n\n    filledOrders[_id] = _order;\n    delete openOrders[_id];\n\n    emit Trade(_order, msg.sender, block.timestamp);\n  }\n\n  function _handleDeposit(address _user, _Token memory _token) internal {\n    _addToBalance(_user, _token);\n    emit Deposit(_user, _token, balances[_user][_token.contractAddress]);\n  }\n\n  function _handleWithdraw(address _user, _Token memory _token) internal {\n    require(balanceOf(msg.sender, _token.contractAddress) >= _token.amount);\n\n    _subtractFromBalance(_user, _token);\n    emit Withdraw(_user, _token, balances[_user][_token.contractAddress]);\n  }\n\n  function _addToBalance(address _user, _Token memory _token) internal {\n    balances[_user][_token.contractAddress] = balances[_user][_token.contractAddress].add(_token.amount);\n  }\n\n  function _subtractFromBalance(address _user, _Token memory _token) internal {\n    require(balances[_user][_token.contractAddress] >= _token.amount);\n    balances[_user][_token.contractAddress] = balances[_user][_token.contractAddress].sub(_token.amount);\n  }\n\n  function _addToOfferBalance(address _user, _Token memory _token) internal {\n    offerBalances[_user][_token.contractAddress] = offerBalances[_user][_token.contractAddress].add(_token.amount);\n  }\n\n  function _subtractFromOfferBalance(address _user, _Token memory _token) internal {\n    require(offerBalances[_user][_token.contractAddress] >= _token.amount);\n    offerBalances[_user][_token.contractAddress] = offerBalances[_user][_token.contractAddress].sub(_token.amount);\n  }\n}\n",
  "sourcePath": "/home/guillaume/Projects/dappuniversity/next-guil-token-exchange/ethereum/contracts/Exchange.sol",
  "compiler": {
    "name": "solc",
    "version": "0.8.12+commit.f00d7308.Emscripten.clang"
  },
  "schemaVersion": "3.4.4",
  "updatedAt": "2022-03-12T23:17:25.072Z",
  "networkType": "ethereum",
  "devdoc": {
    "kind": "dev",
    "methods": {},
    "version": 1
  },
  "userdoc": {
    "kind": "user",
    "methods": {},
    "version": 1
  }
}