{
  "contractName": "GuilToken",
  "abi": [
    {
      "inputs": [],
      "stateMutability": "nonpayable",
      "type": "constructor"
    },
    {
      "inputs": [
        {
          "internalType": "address",
          "name": "",
          "type": "address"
        },
        {
          "internalType": "address",
          "name": "",
          "type": "address"
        }
      ],
      "name": "allowance",
      "outputs": [
        {
          "internalType": "uint256",
          "name": "",
          "type": "uint256"
        }
      ],
      "stateMutability": "view",
      "type": "function",
      "constant": true
    },
    {
      "inputs": [
        {
          "internalType": "address",
          "name": "",
          "type": "address"
        }
      ],
      "name": "balanceOf",
      "outputs": [
        {
          "internalType": "uint256",
          "name": "",
          "type": "uint256"
        }
      ],
      "stateMutability": "view",
      "type": "function",
      "constant": true
    },
    {
      "inputs": [],
      "name": "decimals",
      "outputs": [
        {
          "internalType": "uint256",
          "name": "",
          "type": "uint256"
        }
      ],
      "stateMutability": "view",
      "type": "function",
      "constant": true
    },
    {
      "inputs": [],
      "name": "name",
      "outputs": [
        {
          "internalType": "string",
          "name": "",
          "type": "string"
        }
      ],
      "stateMutability": "view",
      "type": "function",
      "constant": true
    },
    {
      "inputs": [],
      "name": "symbol",
      "outputs": [
        {
          "internalType": "string",
          "name": "",
          "type": "string"
        }
      ],
      "stateMutability": "view",
      "type": "function",
      "constant": true
    },
    {
      "inputs": [],
      "name": "totalSupply",
      "outputs": [
        {
          "internalType": "uint256",
          "name": "",
          "type": "uint256"
        }
      ],
      "stateMutability": "view",
      "type": "function",
      "constant": true
    }
  ],
  "bytecode": "0x60c0604052600960808190526823bab4b62a37b5b2b760b91b60a090815261002a916000919061009e565b506040805180820190915260048082526311d5525360e21b60209092019182526100569160019161009e565b50601260025534801561006857600080fd5b5060025461007790600a610233565b61008490620f4240610246565b6003819055336000908152600460205260409020556102a0565b8280546100aa90610265565b90600052602060002090601f0160209004810192826100cc5760008555610112565b82601f106100e557805160ff1916838001178555610112565b82800160010185558215610112579182015b828111156101125782518255916020019190600101906100f7565b5061011e929150610122565b5090565b5b8082111561011e5760008155600101610123565b634e487b7160e01b600052601160045260246000fd5b600181815b8085111561018857816000190482111561016e5761016e610137565b8085161561017b57918102915b93841c9390800290610152565b509250929050565b60008261019f5750600161022d565b816101ac5750600061022d565b81600181146101c257600281146101cc576101e8565b600191505061022d565b60ff8411156101dd576101dd610137565b50506001821b61022d565b5060208310610133831016604e8410600b841016171561020b575081810a61022d565b610215838361014d565b806000190482111561022957610229610137565b0290505b92915050565b600061023f8383610190565b9392505050565b600081600019048311821515161561026057610260610137565b500290565b600181811c9082168061027957607f821691505b6020821081141561029a57634e487b7160e01b600052602260045260246000fd5b50919050565b6102ca806102af6000396000f3fe608060405234801561001057600080fd5b50600436106100625760003560e01c806306fdde031461006757806318160ddd14610085578063313ce5671461009c57806370a08231146100a557806395d89b41146100c5578063dd62ed3e146100cd575b600080fd5b61006f6100f8565b60405161007c9190610193565b60405180910390f35b61008e60035481565b60405190815260200161007c565b61008e60025481565b61008e6100b3366004610204565b60046020526000908152604090205481565b61006f610186565b61008e6100db366004610226565b600560209081526000928352604080842090915290825290205481565b6000805461010590610259565b80601f016020809104026020016040519081016040528092919081815260200182805461013190610259565b801561017e5780601f106101535761010080835404028352916020019161017e565b820191906000526020600020905b81548152906001019060200180831161016157829003601f168201915b505050505081565b6001805461010590610259565b600060208083528351808285015260005b818110156101c0578581018301518582016040015282016101a4565b818111156101d2576000604083870101525b50601f01601f1916929092016040019392505050565b80356001600160a01b03811681146101ff57600080fd5b919050565b60006020828403121561021657600080fd5b61021f826101e8565b9392505050565b6000806040838503121561023957600080fd5b610242836101e8565b9150610250602084016101e8565b90509250929050565b600181811c9082168061026d57607f821691505b6020821081141561028e57634e487b7160e01b600052602260045260246000fd5b5091905056fea2646970667358221220d5943919028dd59792c577c69da750531615037855697d2b30abc4c129d0216464736f6c634300080b0033",
  "immutableReferences": {},
  "source": "pragma solidity ^0.8.0;\n\nimport \"@openzeppelin/contracts/utils/math/SafeMath.sol\";\n\ncontract GuilToken {\n  using SafeMath for uint;\n\n  string public name = \"GuilToken\";\n  string public symbol = \"GUIL\";\n  uint public decimals = 18;\n  uint public totalSupply;\n  mapping(address => uint) public balanceOf;\n  mapping(address => mapping(address => uint)) public allowance;\n\n  constructor() public {\n    totalSupply = 1000000 * 10 ** decimals;\n    balanceOf[msg.sender] = totalSupply;\n  }\n}\n",
  "sourcePath": "/home/guillaume/Projects/dappuniversity/guil-token-exchange/ethereum/contracts/GuilToken.sol",
  "compiler": {
    "name": "solc",
    "version": "0.8.11+commit.d7f03943.Emscripten.clang"
  },
  "schemaVersion": "3.4.4",
  "updatedAt": "2022-02-16T03:37:43.512Z",
  "networkType": "ethereum",
  "devdoc": {
    "kind": "dev",
    "methods": {},
    "version": 1
  },
  "userdoc": {
    "kind": "user",
    "methods": {},
    "version": 1
  }
}