{
  "contractName": "Exchange",
  "abi": [
    {
      "inputs": [
        {
          "internalType": "address",
          "name": "_feeAccount",
          "type": "address"
        },
        {
          "internalType": "uint256",
          "name": "_feePercent",
          "type": "uint256"
        }
      ],
      "stateMutability": "nonpayable",
      "type": "constructor"
    },
    {
      "anonymous": false,
      "inputs": [
        {
          "components": [
            {
              "internalType": "uint256",
              "name": "id",
              "type": "uint256"
            },
            {
              "internalType": "address",
              "name": "user",
              "type": "address"
            },
            {
              "components": [
                {
                  "internalType": "address",
                  "name": "contractAddress",
                  "type": "address"
                },
                {
                  "internalType": "uint256",
                  "name": "amount",
                  "type": "uint256"
                }
              ],
              "internalType": "struct Exchange._Token",
              "name": "offer",
              "type": "tuple"
            },
            {
              "components": [
                {
                  "internalType": "address",
                  "name": "contractAddress",
                  "type": "address"
                },
                {
                  "internalType": "uint256",
                  "name": "amount",
                  "type": "uint256"
                }
              ],
              "internalType": "struct Exchange._Token",
              "name": "demand",
              "type": "tuple"
            },
            {
              "internalType": "uint256",
              "name": "timestamp",
              "type": "uint256"
            }
          ],
          "indexed": false,
          "internalType": "struct Exchange._Order",
          "name": "order",
          "type": "tuple"
        },
        {
          "indexed": false,
          "internalType": "uint256",
          "name": "timestamp",
          "type": "uint256"
        }
      ],
      "name": "Cancel",
      "type": "event"
    },
    {
      "anonymous": false,
      "inputs": [
        {
          "indexed": false,
          "internalType": "address",
          "name": "user",
          "type": "address"
        },
        {
          "components": [
            {
              "internalType": "address",
              "name": "contractAddress",
              "type": "address"
            },
            {
              "internalType": "uint256",
              "name": "amount",
              "type": "uint256"
            }
          ],
          "indexed": false,
          "internalType": "struct Exchange._Token",
          "name": "token",
          "type": "tuple"
        },
        {
          "indexed": false,
          "internalType": "uint256",
          "name": "balance",
          "type": "uint256"
        }
      ],
      "name": "Deposit",
      "type": "event"
    },
    {
      "anonymous": false,
      "inputs": [
        {
          "indexed": false,
          "internalType": "uint256",
          "name": "id",
          "type": "uint256"
        },
        {
          "indexed": false,
          "internalType": "address",
          "name": "user",
          "type": "address"
        },
        {
          "components": [
            {
              "internalType": "address",
              "name": "contractAddress",
              "type": "address"
            },
            {
              "internalType": "uint256",
              "name": "amount",
              "type": "uint256"
            }
          ],
          "indexed": false,
          "internalType": "struct Exchange._Token",
          "name": "offer",
          "type": "tuple"
        },
        {
          "components": [
            {
              "internalType": "address",
              "name": "contractAddress",
              "type": "address"
            },
            {
              "internalType": "uint256",
              "name": "amount",
              "type": "uint256"
            }
          ],
          "indexed": false,
          "internalType": "struct Exchange._Token",
          "name": "demand",
          "type": "tuple"
        },
        {
          "indexed": false,
          "internalType": "uint256",
          "name": "timestamp",
          "type": "uint256"
        }
      ],
      "name": "Order",
      "type": "event"
    },
    {
      "anonymous": false,
      "inputs": [
        {
          "components": [
            {
              "internalType": "uint256",
              "name": "id",
              "type": "uint256"
            },
            {
              "internalType": "address",
              "name": "user",
              "type": "address"
            },
            {
              "components": [
                {
                  "internalType": "address",
                  "name": "contractAddress",
                  "type": "address"
                },
                {
                  "internalType": "uint256",
                  "name": "amount",
                  "type": "uint256"
                }
              ],
              "internalType": "struct Exchange._Token",
              "name": "offer",
              "type": "tuple"
            },
            {
              "components": [
                {
                  "internalType": "address",
                  "name": "contractAddress",
                  "type": "address"
                },
                {
                  "internalType": "uint256",
                  "name": "amount",
                  "type": "uint256"
                }
              ],
              "internalType": "struct Exchange._Token",
              "name": "demand",
              "type": "tuple"
            },
            {
              "internalType": "uint256",
              "name": "timestamp",
              "type": "uint256"
            }
          ],
          "indexed": false,
          "internalType": "struct Exchange._Order",
          "name": "order",
          "type": "tuple"
        },
        {
          "indexed": false,
          "internalType": "uint256",
          "name": "timestamp",
          "type": "uint256"
        }
      ],
      "name": "Trade",
      "type": "event"
    },
    {
      "anonymous": false,
      "inputs": [
        {
          "indexed": false,
          "internalType": "address",
          "name": "user",
          "type": "address"
        },
        {
          "components": [
            {
              "internalType": "address",
              "name": "contractAddress",
              "type": "address"
            },
            {
              "internalType": "uint256",
              "name": "amount",
              "type": "uint256"
            }
          ],
          "indexed": false,
          "internalType": "struct Exchange._Token",
          "name": "token",
          "type": "tuple"
        },
        {
          "indexed": false,
          "internalType": "uint256",
          "name": "balance",
          "type": "uint256"
        }
      ],
      "name": "Withdraw",
      "type": "event"
    },
    {
      "inputs": [],
      "name": "feeAccount",
      "outputs": [
        {
          "internalType": "address",
          "name": "",
          "type": "address"
        }
      ],
      "stateMutability": "view",
      "type": "function"
    },
    {
      "inputs": [],
      "name": "feePercent",
      "outputs": [
        {
          "internalType": "uint256",
          "name": "",
          "type": "uint256"
        }
      ],
      "stateMutability": "view",
      "type": "function"
    },
    {
      "inputs": [
        {
          "internalType": "address",
          "name": "_user",
          "type": "address"
        },
        {
          "internalType": "address",
          "name": "_token",
          "type": "address"
        }
      ],
      "name": "balanceOf",
      "outputs": [
        {
          "internalType": "uint256",
          "name": "",
          "type": "uint256"
        }
      ],
      "stateMutability": "view",
      "type": "function"
    },
    {
      "inputs": [
        {
          "components": [
            {
              "internalType": "address",
              "name": "contractAddress",
              "type": "address"
            },
            {
              "internalType": "uint256",
              "name": "amount",
              "type": "uint256"
            }
          ],
          "internalType": "struct Exchange._Token",
          "name": "_token",
          "type": "tuple"
        }
      ],
      "name": "deposit",
      "outputs": [],
      "stateMutability": "nonpayable",
      "type": "function"
    },
    {
      "inputs": [
        {
          "components": [
            {
              "internalType": "address",
              "name": "contractAddress",
              "type": "address"
            },
            {
              "internalType": "uint256",
              "name": "amount",
              "type": "uint256"
            }
          ],
          "internalType": "struct Exchange._Token",
          "name": "_token",
          "type": "tuple"
        }
      ],
      "name": "withdraw",
      "outputs": [],
      "stateMutability": "nonpayable",
      "type": "function"
    },
    {
      "inputs": [],
      "name": "depositEther",
      "outputs": [],
      "stateMutability": "payable",
      "type": "function"
    },
    {
      "inputs": [
        {
          "internalType": "uint256",
          "name": "_amount",
          "type": "uint256"
        }
      ],
      "name": "withdrawEther",
      "outputs": [],
      "stateMutability": "nonpayable",
      "type": "function"
    },
    {
      "inputs": [
        {
          "internalType": "uint256",
          "name": "_id",
          "type": "uint256"
        }
      ],
      "name": "order",
      "outputs": [
        {
          "components": [
            {
              "internalType": "uint256",
              "name": "id",
              "type": "uint256"
            },
            {
              "internalType": "address",
              "name": "user",
              "type": "address"
            },
            {
              "components": [
                {
                  "internalType": "address",
                  "name": "contractAddress",
                  "type": "address"
                },
                {
                  "internalType": "uint256",
                  "name": "amount",
                  "type": "uint256"
                }
              ],
              "internalType": "struct Exchange._Token",
              "name": "offer",
              "type": "tuple"
            },
            {
              "components": [
                {
                  "internalType": "address",
                  "name": "contractAddress",
                  "type": "address"
                },
                {
                  "internalType": "uint256",
                  "name": "amount",
                  "type": "uint256"
                }
              ],
              "internalType": "struct Exchange._Token",
              "name": "demand",
              "type": "tuple"
            },
            {
              "internalType": "uint256",
              "name": "timestamp",
              "type": "uint256"
            }
          ],
          "internalType": "struct Exchange._Order",
          "name": "",
          "type": "tuple"
        }
      ],
      "stateMutability": "view",
      "type": "function"
    },
    {
      "inputs": [
        {
          "internalType": "uint256",
          "name": "_id",
          "type": "uint256"
        }
      ],
      "name": "openOrder",
      "outputs": [
        {
          "components": [
            {
              "internalType": "uint256",
              "name": "id",
              "type": "uint256"
            },
            {
              "internalType": "address",
              "name": "user",
              "type": "address"
            },
            {
              "components": [
                {
                  "internalType": "address",
                  "name": "contractAddress",
                  "type": "address"
                },
                {
                  "internalType": "uint256",
                  "name": "amount",
                  "type": "uint256"
                }
              ],
              "internalType": "struct Exchange._Token",
              "name": "offer",
              "type": "tuple"
            },
            {
              "components": [
                {
                  "internalType": "address",
                  "name": "contractAddress",
                  "type": "address"
                },
                {
                  "internalType": "uint256",
                  "name": "amount",
                  "type": "uint256"
                }
              ],
              "internalType": "struct Exchange._Token",
              "name": "demand",
              "type": "tuple"
            },
            {
              "internalType": "uint256",
              "name": "timestamp",
              "type": "uint256"
            }
          ],
          "internalType": "struct Exchange._Order",
          "name": "",
          "type": "tuple"
        }
      ],
      "stateMutability": "view",
      "type": "function"
    },
    {
      "inputs": [
        {
          "internalType": "uint256",
          "name": "_id",
          "type": "uint256"
        }
      ],
      "name": "cancelledOrder",
      "outputs": [
        {
          "components": [
            {
              "internalType": "uint256",
              "name": "id",
              "type": "uint256"
            },
            {
              "internalType": "address",
              "name": "user",
              "type": "address"
            },
            {
              "components": [
                {
                  "internalType": "address",
                  "name": "contractAddress",
                  "type": "address"
                },
                {
                  "internalType": "uint256",
                  "name": "amount",
                  "type": "uint256"
                }
              ],
              "internalType": "struct Exchange._Token",
              "name": "offer",
              "type": "tuple"
            },
            {
              "components": [
                {
                  "internalType": "address",
                  "name": "contractAddress",
                  "type": "address"
                },
                {
                  "internalType": "uint256",
                  "name": "amount",
                  "type": "uint256"
                }
              ],
              "internalType": "struct Exchange._Token",
              "name": "demand",
              "type": "tuple"
            },
            {
              "internalType": "uint256",
              "name": "timestamp",
              "type": "uint256"
            }
          ],
          "internalType": "struct Exchange._Order",
          "name": "",
          "type": "tuple"
        }
      ],
      "stateMutability": "view",
      "type": "function"
    },
    {
      "inputs": [
        {
          "internalType": "uint256",
          "name": "_id",
          "type": "uint256"
        }
      ],
      "name": "filledOrder",
      "outputs": [
        {
          "components": [
            {
              "internalType": "uint256",
              "name": "id",
              "type": "uint256"
            },
            {
              "internalType": "address",
              "name": "user",
              "type": "address"
            },
            {
              "components": [
                {
                  "internalType": "address",
                  "name": "contractAddress",
                  "type": "address"
                },
                {
                  "internalType": "uint256",
                  "name": "amount",
                  "type": "uint256"
                }
              ],
              "internalType": "struct Exchange._Token",
              "name": "offer",
              "type": "tuple"
            },
            {
              "components": [
                {
                  "internalType": "address",
                  "name": "contractAddress",
                  "type": "address"
                },
                {
                  "internalType": "uint256",
                  "name": "amount",
                  "type": "uint256"
                }
              ],
              "internalType": "struct Exchange._Token",
              "name": "demand",
              "type": "tuple"
            },
            {
              "internalType": "uint256",
              "name": "timestamp",
              "type": "uint256"
            }
          ],
          "internalType": "struct Exchange._Order",
          "name": "",
          "type": "tuple"
        }
      ],
      "stateMutability": "view",
      "type": "function"
    },
    {
      "inputs": [
        {
          "internalType": "address",
          "name": "_user",
          "type": "address"
        },
        {
          "internalType": "address",
          "name": "_token",
          "type": "address"
        }
      ],
      "name": "offerBalance",
      "outputs": [
        {
          "internalType": "uint256",
          "name": "",
          "type": "uint256"
        }
      ],
      "stateMutability": "view",
      "type": "function"
    },
    {
      "inputs": [
        {
          "components": [
            {
              "internalType": "address",
              "name": "contractAddress",
              "type": "address"
            },
            {
              "internalType": "uint256",
              "name": "amount",
              "type": "uint256"
            }
          ],
          "internalType": "struct Exchange._Token",
          "name": "_offer",
          "type": "tuple"
        },
        {
          "components": [
            {
              "internalType": "address",
              "name": "contractAddress",
              "type": "address"
            },
            {
              "internalType": "uint256",
              "name": "amount",
              "type": "uint256"
            }
          ],
          "internalType": "struct Exchange._Token",
          "name": "_demand",
          "type": "tuple"
        }
      ],
      "name": "placeOrder",
      "outputs": [],
      "stateMutability": "nonpayable",
      "type": "function"
    },
    {
      "inputs": [
        {
          "internalType": "uint256",
          "name": "_id",
          "type": "uint256"
        }
      ],
      "name": "cancelOrder",
      "outputs": [],
      "stateMutability": "nonpayable",
      "type": "function"
    }
  ],
  "bytecode": "0x6080604052600060035534801561001557600080fd5b506040516111b73803806111b78339810160408190526100349161005d565b600080546001600160a01b0319166001600160a01b039390931692909217909155600155610097565b6000806040838503121561007057600080fd5b82516001600160a01b038116811461008757600080fd5b6020939093015192949293505050565b611111806100a66000396000f3fe6080604052600436106100dd5760003560e01c80635c7a2a801161007f57806398ea5fca1161005957806398ea5fca1461027c578063b069a18014610284578063dc647791146102a4578063f7888aec146102c457600080fd5b80635c7a2a801461020e57806365e17c9d1461022e5780637fd6f15c1461026657600080fd5b80633bed33ce116100bb5780633bed33ce1461018c5780633c565417146101ae57806345dca66b146101ce578063514fcac7146101ee57600080fd5b806321603f43146100e257806324dcf0a9146101185780633245b7331461016c575b600080fd5b3480156100ee57600080fd5b506101026100fd366004610e53565b6102e4565b60405161010f9190610e6c565b60405180910390f35b34801561012457600080fd5b5061015e610133366004610efa565b6001600160a01b03918216600090815260086020908152604080832093909416825291909152205490565b60405190815260200161010f565b34801561017857600080fd5b50610102610187366004610e53565b61036f565b34801561019857600080fd5b506101ac6101a7366004610e53565b6103f9565b005b3480156101ba57600080fd5b506101ac6101c9366004610f92565b610452565b3480156101da57600080fd5b506101026101e9366004610e53565b6104f7565b3480156101fa57600080fd5b506101ac610209366004610e53565b610580565b34801561021a57600080fd5b506101ac610229366004610f92565b61071a565b34801561023a57600080fd5b5060005461024e906001600160a01b031681565b6040516001600160a01b03909116815260200161010f565b34801561027257600080fd5b5061015e60015481565b6101ac6107c5565b34801561029057600080fd5b506101ac61029f366004610fae565b6107ef565b3480156102b057600080fd5b506101026102bf366004610e53565b610ac3565b3480156102d057600080fd5b5061015e6102df366004610efa565b610b4a565b6102ec610dd3565b50600090815260046020818152604092839020835160a0810185528154815260018201546001600160a01b0390811682850152855180870187526002840154821681526003840154818601528287015285518087019096529382015490931684526005810154918401919091526060820192909252600690910154608082015290565b610377610dd3565b50600090815260076020908152604091829020825160a0810184528154815260018201546001600160a01b03908116828501528451808601865260028401548216815260038401548186015282860152845180860190955260048301541684526005820154928401929092526060820192909252600690910154608082015290565b61042133604051806040016040528060006001600160a01b0316815260200184815250610b75565b604051339082156108fc029083906000818181858888f1935050505015801561044e573d6000803e3d6000fd5b5050565b80516001600160a01b031661046657600080fd5b8051602082015160405163a9059cbb60e01b815233600482015260248101919091526000916001600160a01b03169063a9059cbb906044016020604051808303816000875af11580156104bd573d6000803e3d6000fd5b505050506040513d601f19601f820116820180604052508101906104e19190610fda565b9050806104ed57600080fd5b61044e3383610b75565b6104ff610dd3565b50600090815260056020818152604092839020835160a0810185528154815260018201546001600160a01b039081168285015285518087018752600284015482168152600384015481860152828701528551808701909652600483015416855292810154918401919091526060820192909252600690910154608082015290565b60008181526004602052604090208054821461059b57600080fd5b60018101546001600160a01b031633146105b457600080fd5b600082815260066020526040902054156105cd57600080fd5b60008281526006602081815260408084208554815560018087015481830180546001600160a01b03199081166001600160a01b03938416179091556002808a0154818601805484169185169190911790556003808b0154818701556004808c01548188018054861691909616179094556005808c015481880155898c0154968a0196909655968590528589208981559384018054831690558301805482169055948201879055810180549094169093558201849055910191909155517f80ce33e71d3225ab09d552f61046e836ab4014b9f7ad067e244c927103ab7e8f9061070e90839042908254815260018301546001600160a01b039081166020830152600284015481166040830152600384015460608301526004840154166080820152600583015460a082015260069092015460c083015260e08201526101000190565b60405180910390a15050565b80516001600160a01b031661072e57600080fd5b805160208201516040516323b872dd60e01b815233600482015230602482015260448101919091526000916001600160a01b0316906323b872dd906064016020604051808303816000875af115801561078b573d6000803e3d6000fd5b505050506040513d601f19601f820116820180604052508101906107af9190610fda565b9050806107bb57600080fd5b61044e3383610bf8565b6107ed33604051806040016040528060006001600160a01b0316815260200134815250610bf8565b565b600082602001511161080057600080fd5b600081602001511161081157600080fd5b60208083015133600090815260028352604080822086516001600160a01b031683529093529190912054101561084657600080fd5b600354600090610857906001610c5d565b905060004290506040518060a00160405280838152602001336001600160a01b0316815260200185815260200184815260200182815250600460008481526020019081526020016000206000820151816000015560208201518160010160006101000a8154816001600160a01b0302191690836001600160a01b0316021790555060408201518160020160008201518160000160006101000a8154816001600160a01b0302191690836001600160a01b0316021790555060208201518160010155505060608201518160040160008201518160000160006101000a8154816001600160a01b0302191690836001600160a01b03160217905550602082015181600101555050608082015181600601559050506040518060a00160405280838152602001336001600160a01b0316815260200185815260200184815260200182815250600560008481526020019081526020016000206000820151816000015560208201518160010160006101000a8154816001600160a01b0302191690836001600160a01b0316021790555060408201518160020160008201518160000160006101000a8154816001600160a01b0302191690836001600160a01b0316021790555060208201518160010155505060608201518160040160008201518160000160006101000a8154816001600160a01b0302191690836001600160a01b0316021790555060208201518160010155505060808201518160060155905050610a7e3385610c70565b7f24b391b5836c2ebb57e3ab4db39f5b808fce3e72e98de294b91e9f88b8383b248233868685604051610ab5959493929190610ffc565b60405180910390a150505050565b610acb610dd3565b50600090815260066020818152604092839020835160a0810185528154815260018201546001600160a01b03908116828501528551808701875260028401548216815260038401548186015282870152855180870190965260048301541685526005820154928501929092526060820193909352910154608082015290565b6001600160a01b03918216600090815260026020908152604080832093909416825291909152205490565b8060200151610b88338360000151610b4a565b1015610b9357600080fd5b610b9d8282610cf3565b6001600160a01b038083166000908152600260209081526040808320855190941683529290528190205490517ff28fbb8ad68b19d99c493ff08b1d8b22ba7ea81efe80d5eeb99f033d8ce3801c9161070e9185918591611058565b610c028282610d90565b6001600160a01b038083166000908152600260209081526040808320855190941683529290528190205490517ff051a5595626324bcdb061f349bdfc926e90ac44ebe4a22571b62ee5ab6ef5199161070e9185918591611058565b6000610c6982846110ac565b9392505050565b8060200151610c83838360000151610b4a565b1015610c8e57600080fd5b6020808201516001600160a01b038085166000908152600884526040808220865190931682529190935290912054610cc591610dc7565b6001600160a01b03808416600090815260086020908152604080832086519094168352929052205561044e82825b6020808201516001600160a01b0380851660009081526002845260408082208651909316825291909352909120541015610d2c57600080fd5b6020808201516001600160a01b038085166000908152600284526040808220865190931682529190935290912054610d6391610dc7565b6001600160a01b039283166000908152600260209081526040808320945190951682529290925291902055565b6020808201516001600160a01b038085166000908152600284526040808220865190931682529190935290912054610d6391610c5d565b6000610c6982846110c4565b6040518060a001604052806000815260200160006001600160a01b03168152602001610e1b604051806040016040528060006001600160a01b03168152602001600081525090565b8152602001610e46604051806040016040528060006001600160a01b03168152602001600081525090565b8152602001600081525090565b600060208284031215610e6557600080fd5b5035919050565b815181526020808301516001600160a01b03169082015260408083015160e0830191610ead9084018280516001600160a01b03168252602090810151910152565b50606083015180516001600160a01b03166080840152602081015160a084015250608083015160c083015292915050565b80356001600160a01b0381168114610ef557600080fd5b919050565b60008060408385031215610f0d57600080fd5b610f1683610ede565b9150610f2460208401610ede565b90509250929050565b600060408284031215610f3f57600080fd5b6040516040810181811067ffffffffffffffff82111715610f7057634e487b7160e01b600052604160045260246000fd5b604052905080610f7f83610ede565b8152602083013560208201525092915050565b600060408284031215610fa457600080fd5b610c698383610f2d565b60008060808385031215610fc157600080fd5b610fcb8484610f2d565b9150610f248460408501610f2d565b600060208284031215610fec57600080fd5b81518015158114610c6957600080fd5b8581526001600160a01b038516602082015260e08101611032604083018680516001600160a01b03168252602090810151910152565b83516001600160a01b0316608083015260209093015160a082015260c001529392505050565b6001600160a01b038416815260808101611088602083018580516001600160a01b03168252602090810151910152565b826060830152949350505050565b634e487b7160e01b600052601160045260246000fd5b600082198211156110bf576110bf611096565b500190565b6000828210156110d6576110d6611096565b50039056fea26469706673582212200e094a3256a114c2f7ce6e98ffb5e4ea2cb9bf243935676f2fd1fad1f87962e864736f6c634300080c0033",
  "immutableReferences": {},
  "source": "pragma solidity ^0.8.0;\n\nimport \"./GuilToken.sol\";\nimport \"@openzeppelin/contracts/utils/math/SafeMath.sol\";\n\n// Deposit & Withdraw Funds\n// Manage Orders - Make or Cancel\n// Handle Trades - Charge fees\n\n// TODO:\n// [x] Set the fee account\n// [x] Deposit Ether\n// [x] Withdraw Ether\n// [x] Deposit Tokens\n// [x] Withdraw Tokens\n// [x] Check balances\n// [x] Place order\n// [x] Cancel order\n// [ ] Fill order\n// [ ] Charge fees\n\ncontract Exchange {\n  using SafeMath for uint;\n\n  address public feeAccount;\n\n  uint public feePercent;\n\n  mapping(address => mapping(address => uint)) internal balances;\n\n  uint internal ordersCount = 0;\n\n  mapping(uint => _Order) internal orders;\n\n  mapping(uint => _Order) internal openOrders;\n\n  mapping(uint => _Order) internal cancelledOrders;\n\n  mapping(uint => _Order) internal filledOrders;\n\n  mapping(address => mapping(address => uint)) internal offerBalances;\n\n  event Deposit(address user, _Token token, uint balance);\n\n  event Withdraw(address user, _Token token, uint balance);\n\n  event Order(uint id, address user, _Token offer, _Token demand, uint timestamp);\n\n  event Trade(_Order order, uint timestamp);\n\n  event Cancel(_Order order, uint timestamp);\n\n  struct _Token {\n    address contractAddress;\n    uint amount;\n  }\n\n  struct _Order {\n    uint id;\n    address user;\n    _Token offer;\n    _Token demand;\n    uint timestamp;\n  }\n\n  constructor(address _feeAccount, uint _feePercent) {\n    feeAccount = _feeAccount;\n    feePercent = _feePercent;\n  }\n\n  function balanceOf(address _user, address _token) public view returns (uint) {\n    return balances[_user][_token];\n  }\n\n  function deposit(_Token memory _token) public {\n    require(_token.contractAddress != address(0));\n    bool _transferred = GuilToken(_token.contractAddress).transferFrom(msg.sender, address(this), _token.amount);\n    require(_transferred);\n    _handleDeposit(msg.sender, _token);\n  }\n\n  function withdraw(_Token memory _token) public {\n    require(_token.contractAddress != address(0));\n\n    bool _transferred = GuilToken(_token.contractAddress).transfer(msg.sender, _token.amount);\n    require(_transferred);\n\n    _handleWithdraw(msg.sender, _token);\n  }\n\n  function depositEther() public payable {\n    _handleDeposit(msg.sender, _Token(address(0), msg.value));\n  }\n\n  function withdrawEther(uint _amount) public {\n    _handleWithdraw(msg.sender, _Token(address(0), _amount));\n    payable(msg.sender).transfer(_amount);\n  }\n\n  function order(uint _id) public view returns (_Order memory) {\n    return orders[_id];\n  }\n\n  function openOrder(uint _id) public view returns (_Order memory) {\n    return openOrders[_id];\n  }\n\n  function cancelledOrder(uint _id) public view returns (_Order memory) {\n    return cancelledOrders[_id];\n  }\n\n  function filledOrder(uint _id) public view returns (_Order memory) {\n    return filledOrders[_id];\n  }\n\n  function offerBalance(address _user, address _token) public view returns (uint) {\n    return offerBalances[_user][_token];\n  }\n\n  function placeOrder(_Token memory _offer, _Token memory _demand) public {\n    require(_offer.amount > 0);\n    require(_demand.amount > 0);\n    require(balances[msg.sender][_offer.contractAddress] >= _offer.amount);\n\n    uint _id = ordersCount.add(1);\n    uint _timestamp = block.timestamp;\n\n    orders[_id] = _Order(_id, msg.sender, _offer, _demand, _timestamp);\n    openOrders[_id] = _Order(_id, msg.sender, _offer, _demand, _timestamp);\n    _depositToOfferPool(msg.sender, _offer);\n\n    emit Order(_id, msg.sender, _offer, _demand, _timestamp);\n  }\n\n  function cancelOrder(uint _id) public {\n    _Order storage _order = orders[_id];\n\n    require(_order.id == _id);\n    require(_order.user == msg.sender);\n    require(cancelledOrders[_id].id == 0);\n\n    cancelledOrders[_id] = _order;\n    delete openOrders[_id];\n\n    emit Cancel(_order, block.timestamp);\n  }\n\n//  function fillOrder(uint _id) public {\n//    _Order storage _order = openOrders[_id];\n//\n//    require(_order.id == _id);\n//    require(_order.user != msg.sender);\n//\n//    uint _buyerBalance = balanceOf(msg.sender, _order.demand.contractAddress);\n//    uint _feeAmount = _order.demand.amount.mul(feePercent.div(10**20));\n//    require(_buyerBalance >= _order.demand.amount.add(_feeAmount));\n//\n//    uint _sellerBalance = offerBalances[_order.user][_order.offer.contractAddress];\n//    require(_sellerBalance >= _order.offer.amount);\n//\n////    _Token memory _feeAddedDemand = _Token(_order.demand.contractAddress, _order.demand.amount.add(_feeAmount));\n////\n////    offerBalances[_order.user][_order.offer.contractAddress]\n////      = offerBalances[_order.user][_order.offer.contractAddress].sub(_order.offer.amount.add(_feeAmount));\n////    _subtractFromBalance(msg.sender, _feeAddedDemand);\n////    _addToBalance(msg.sender, _order.offer);\n////\n////    _subtractFromBalance(_order.user, _order.offer);\n////    _addToBalance(_order.user, _order.demand);\n////    offerBalances[_order.user][_order.offer.contractAddress] = offerBalances[_order.user][_order.offer.contractAddress].sub(_order.offer.amount);\n////\n////    filledOrders[_id] = _order;\n////    delete openOrders[_id];\n//  }\n\n  function _handleDeposit(address _user, _Token memory _token) internal {\n    _addToBalance(_user, _token);\n    emit Deposit(_user, _token, balances[_user][_token.contractAddress]);\n  }\n\n  function _handleWithdraw(address _user, _Token memory _token) internal {\n    require(balanceOf(msg.sender, _token.contractAddress) >= _token.amount);\n\n    _subtractFromBalance(_user, _token);\n    emit Withdraw(_user, _token, balances[_user][_token.contractAddress]);\n  }\n\n  function _addToBalance(address _user, _Token memory _token) internal {\n    balances[_user][_token.contractAddress] = balances[_user][_token.contractAddress].add(_token.amount);\n  }\n\n  function _subtractFromBalance(address _user, _Token memory _token) internal {\n    require(balances[_user][_token.contractAddress] >= _token.amount);\n    balances[_user][_token.contractAddress] = balances[_user][_token.contractAddress].sub(_token.amount);\n  }\n\n  function _depositToOfferPool(address _user, _Token memory _token) internal {\n    require(balanceOf(_user, _token.contractAddress) >= _token.amount);\n    offerBalances[_user][_token.contractAddress] = offerBalances[_user][_token.contractAddress].sub(_token.amount);\n    _subtractFromBalance(_user, _token);\n  }\n\n  function _withdrawFromOfferPool(address _user, _Token memory _token) internal {\n    require(offerBalances[_user][_token.contractAddress] >= _token.amount);\n\n    offerBalances[_user][_token.contractAddress] = offerBalances[_user][_token.contractAddress].sub(_token.amount);\n    _addToBalance(_user, _token);\n  }\n}\n",
  "sourcePath": "/home/guillaume/Projects/dappuniversity/guil-token-exchange/ethereum/contracts/Exchange.sol",
  "compiler": {
    "name": "solc",
    "version": "0.8.12+commit.f00d7308.Emscripten.clang"
  },
  "schemaVersion": "3.4.4",
  "updatedAt": "2022-02-22T02:09:02.050Z",
  "devdoc": {
    "kind": "dev",
    "methods": {},
    "version": 1
  },
  "userdoc": {
    "kind": "user",
    "methods": {},
    "version": 1
  }
}