{
  "contractName": "GuilToken",
  "abi": [
    {
      "inputs": [],
      "stateMutability": "nonpayable",
      "type": "constructor"
    },
    {
      "anonymous": false,
      "inputs": [
        {
          "indexed": true,
          "internalType": "address",
          "name": "from",
          "type": "address"
        },
        {
          "indexed": true,
          "internalType": "address",
          "name": "to",
          "type": "address"
        },
        {
          "indexed": false,
          "internalType": "uint256",
          "name": "value",
          "type": "uint256"
        }
      ],
      "name": "Approve",
      "type": "event"
    },
    {
      "anonymous": false,
      "inputs": [
        {
          "indexed": true,
          "internalType": "address",
          "name": "from",
          "type": "address"
        },
        {
          "indexed": true,
          "internalType": "address",
          "name": "to",
          "type": "address"
        },
        {
          "indexed": false,
          "internalType": "uint256",
          "name": "value",
          "type": "uint256"
        }
      ],
      "name": "Transfer",
      "type": "event"
    },
    {
      "anonymous": false,
      "inputs": [
        {
          "indexed": true,
          "internalType": "address",
          "name": "from",
          "type": "address"
        },
        {
          "indexed": true,
          "internalType": "address",
          "name": "to",
          "type": "address"
        },
        {
          "indexed": false,
          "internalType": "uint256",
          "name": "value",
          "type": "uint256"
        }
      ],
      "name": "Unapprove",
      "type": "event"
    },
    {
      "inputs": [],
      "name": "decimals",
      "outputs": [
        {
          "internalType": "uint256",
          "name": "",
          "type": "uint256"
        }
      ],
      "stateMutability": "view",
      "type": "function",
      "constant": true
    },
    {
      "inputs": [],
      "name": "name",
      "outputs": [
        {
          "internalType": "string",
          "name": "",
          "type": "string"
        }
      ],
      "stateMutability": "view",
      "type": "function",
      "constant": true
    },
    {
      "inputs": [],
      "name": "symbol",
      "outputs": [
        {
          "internalType": "string",
          "name": "",
          "type": "string"
        }
      ],
      "stateMutability": "view",
      "type": "function",
      "constant": true
    },
    {
      "inputs": [],
      "name": "totalSupply",
      "outputs": [
        {
          "internalType": "uint256",
          "name": "",
          "type": "uint256"
        }
      ],
      "stateMutability": "view",
      "type": "function",
      "constant": true
    },
    {
      "inputs": [
        {
          "internalType": "address",
          "name": "_owner",
          "type": "address"
        }
      ],
      "name": "balanceOf",
      "outputs": [
        {
          "internalType": "uint256",
          "name": "",
          "type": "uint256"
        }
      ],
      "stateMutability": "view",
      "type": "function",
      "constant": true
    },
    {
      "inputs": [
        {
          "internalType": "address",
          "name": "_owner",
          "type": "address"
        },
        {
          "internalType": "address",
          "name": "_spender",
          "type": "address"
        }
      ],
      "name": "allowance",
      "outputs": [
        {
          "internalType": "uint256",
          "name": "",
          "type": "uint256"
        }
      ],
      "stateMutability": "view",
      "type": "function",
      "constant": true
    },
    {
      "inputs": [
        {
          "internalType": "address",
          "name": "_to",
          "type": "address"
        },
        {
          "internalType": "uint256",
          "name": "_value",
          "type": "uint256"
        }
      ],
      "name": "transfer",
      "outputs": [
        {
          "internalType": "bool",
          "name": "success",
          "type": "bool"
        }
      ],
      "stateMutability": "nonpayable",
      "type": "function"
    },
    {
      "inputs": [
        {
          "internalType": "address",
          "name": "_to",
          "type": "address"
        },
        {
          "internalType": "uint256",
          "name": "_value",
          "type": "uint256"
        }
      ],
      "name": "approve",
      "outputs": [
        {
          "internalType": "bool",
          "name": "success",
          "type": "bool"
        }
      ],
      "stateMutability": "nonpayable",
      "type": "function"
    },
    {
      "inputs": [
        {
          "internalType": "address",
          "name": "_to",
          "type": "address"
        },
        {
          "internalType": "uint256",
          "name": "_value",
          "type": "uint256"
        }
      ],
      "name": "unapprove",
      "outputs": [
        {
          "internalType": "bool",
          "name": "success",
          "type": "bool"
        }
      ],
      "stateMutability": "nonpayable",
      "type": "function"
    },
    {
      "inputs": [
        {
          "internalType": "address",
          "name": "_from",
          "type": "address"
        },
        {
          "internalType": "address",
          "name": "_to",
          "type": "address"
        },
        {
          "internalType": "uint256",
          "name": "_value",
          "type": "uint256"
        }
      ],
      "name": "transferFrom",
      "outputs": [
        {
          "internalType": "bool",
          "name": "success",
          "type": "bool"
        }
      ],
      "stateMutability": "nonpayable",
      "type": "function"
    }
  ],
  "bytecode": "0x60c0604052600a60808190526923bab4b6102a37b5b2b760b11b60a09081526200002d9160009190620000a9565b506040805180820190915260048082526311d5525360e21b60209092019182526200005b91600191620000a9565b5060126002553480156200006e57600080fd5b506002546200007f90600a62000264565b6200008e90620f424062000279565b600381905533600090815260046020526040902055620002d8565b828054620000b7906200029b565b90600052602060002090601f016020900481019282620000db576000855562000126565b82601f10620000f657805160ff191683800117855562000126565b8280016001018555821562000126579182015b828111156200012657825182559160200191906001019062000109565b506200013492915062000138565b5090565b5b8082111562000134576000815560010162000139565b634e487b7160e01b600052601160045260246000fd5b600181815b80851115620001a65781600019048211156200018a576200018a6200014f565b808516156200019857918102915b93841c93908002906200016a565b509250929050565b600082620001bf575060016200025e565b81620001ce575060006200025e565b8160018114620001e75760028114620001f25762000212565b60019150506200025e565b60ff8411156200020657620002066200014f565b50506001821b6200025e565b5060208310610133831016604e8410600b841016171562000237575081810a6200025e565b62000243838362000165565b80600019048211156200025a576200025a6200014f565b0290505b92915050565b6000620002728383620001ae565b9392505050565b60008160001904831182151516156200029657620002966200014f565b500290565b600181811c90821680620002b057607f821691505b60208210811415620002d257634e487b7160e01b600052602260045260246000fd5b50919050565b6107ce80620002e86000396000f3fe608060405234801561001057600080fd5b506004361061009e5760003560e01c80636f8e2759116100665780636f8e27591461011757806370a082311461012a57806395d89b4114610153578063a9059cbb1461015b578063dd62ed3e1461016e57600080fd5b806306fdde03146100a3578063095ea7b3146100c157806318160ddd146100e457806323b872dd146100fb578063313ce5671461010e575b600080fd5b6100ab6101a7565b6040516100b891906105f3565b60405180910390f35b6100d46100cf366004610664565b610235565b60405190151581526020016100b8565b6100ed60035481565b6040519081526020016100b8565b6100d461010936600461068e565b6102da565b6100ed60025481565b6100d4610125366004610664565b610370565b6100ed6101383660046106ca565b6001600160a01b031660009081526004602052604090205490565b6100ab6103d9565b6100d4610169366004610664565b6103e6565b6100ed61017c3660046106e5565b6001600160a01b03918216600090815260056020908152604080832093909416825291909152205490565b600080546101b490610718565b80601f01602080910402602001604051908101604052809291908181526020018280546101e090610718565b801561022d5780601f106102025761010080835404028352916020019161022d565b820191906000526020600020905b81548152906001019060200180831161021057829003601f168201915b505050505081565b6000610241338361046b565b503360009081526005602090815260408083206001600160a01b038716845290915290205461027090836104d5565b3360008181526005602090815260408083206001600160a01b03891680855292529182902093909355517f6e11fb1b7f119e3f2fa29896ef5fdf8b8a2d0d4df6fe90ba8668e7d8b2ffa25e906102c99086815260200190565b60405180910390a350600192915050565b60006001600160a01b0384166102ef57600080fd5b6001600160a01b03831661030257600080fd5b61030d8433846104e8565b50610318838361057c565b50826001600160a01b0316846001600160a01b03167fddf252ad1be2c89b69c2b068fc378daa952ba7f163c4a11628f55a4df523b3ef8460405161035e91815260200190565b60405180910390a35060019392505050565b60006001600160a01b03831661038557600080fd5b6103903384846104e8565b5061039b338361057c565b506040518281526001600160a01b0384169033907fcae77aca29b0cfa95f6b3d21d9bf793a89d8fba629de23bb362d8f7db66439ee906020016102c9565b600180546101b490610718565b60006001600160a01b0383166103fb57600080fd5b6000821161040857600080fd5b600061041533858561059f565b90508061042157600080fd5b6040518381526001600160a01b0385169033907fddf252ad1be2c89b69c2b068fc378daa952ba7f163c4a11628f55a4df523b3ef9060200160405180910390a35060019392505050565b6001600160a01b03821660009081526004602052604081205482111561049057600080fd5b6001600160a01b0383166000908152600460205260409020546104b390836105e7565b6001600160a01b03841660009081526004602052604090205550600192915050565b60006104e18284610769565b9392505050565b6001600160a01b03808416600090815260056020908152604080832093861683529290529081205482111561051c57600080fd5b6001600160a01b0380851660009081526005602090815260408083209387168352929052205461054c90836105e7565b6001600160a01b038086166000908152600560209081526040808320938816835292905220555060019392505050565b6001600160a01b0382166000908152600460205260408120546104b390836104d5565b60006001600160a01b0384166105b457600080fd5b6001600160a01b0383166105c757600080fd5b6105d1848361046b565b506105dc838361057c565b506001949350505050565b60006104e18284610781565b600060208083528351808285015260005b8181101561062057858101830151858201604001528201610604565b81811115610632576000604083870101525b50601f01601f1916929092016040019392505050565b80356001600160a01b038116811461065f57600080fd5b919050565b6000806040838503121561067757600080fd5b61068083610648565b946020939093013593505050565b6000806000606084860312156106a357600080fd5b6106ac84610648565b92506106ba60208501610648565b9150604084013590509250925092565b6000602082840312156106dc57600080fd5b6104e182610648565b600080604083850312156106f857600080fd5b61070183610648565b915061070f60208401610648565b90509250929050565b600181811c9082168061072c57607f821691505b6020821081141561074d57634e487b7160e01b600052602260045260246000fd5b50919050565b634e487b7160e01b600052601160045260246000fd5b6000821982111561077c5761077c610753565b500190565b60008282101561079357610793610753565b50039056fea2646970667358221220a4778191fcfa327495a63b348c074b58511cebd5ad4cd2878b9d24a9b6ca56bf64736f6c634300080c0033",
  "immutableReferences": {},
  "source": "pragma solidity ^0.8.0;\n\nimport \"@openzeppelin/contracts/utils/math/SafeMath.sol\";\n\ncontract GuilToken {\n  using SafeMath for uint;\n\n  string public name = \"Guil Token\";\n\n  string public symbol = \"GUIL\";\n\n  uint public decimals = 18;\n\n  uint public totalSupply;\n\n  mapping(address => uint) internal _balances;\n\n  mapping(address => mapping(address => uint)) internal _allowances;\n\n  event Transfer(address indexed from, address indexed to, uint value);\n\n  event Approve(address indexed from, address indexed to, uint value);\n\n  event Unapprove(address indexed from, address indexed to, uint value);\n\n  constructor() {\n    totalSupply = 1000000 * 10 ** decimals;\n    _balances[msg.sender] = totalSupply;\n  }\n\n  function balanceOf(address _owner) public view returns (uint) {\n    return _balances[_owner];\n  }\n\n  function allowance(address _owner, address _spender) public view returns (uint) {\n    return _allowances[_owner][_spender];\n  }\n\n  function transfer (address _to, uint _value) public returns (bool success) {\n    require(_to != address(0));\n    require(_value > 0);\n\n    bool _transferred = _handleTransfer(msg.sender, _to, _value);\n    require(_transferred);\n    emit Transfer(msg.sender, _to, _value);\n\n    return true;\n  }\n\n  function approve(address _to, uint _value) public returns (bool success) {\n    _subtractFrom(msg.sender, _value);\n    _allowances[msg.sender][_to] = _allowances[msg.sender][_to].add(_value);\n    emit Approve(msg.sender, _to, _value);\n\n    return true;\n  }\n\n  function unapprove(address _to, uint _value) public returns (bool success) {\n    require(_to != address(0));\n    _subtractFromAllowance(msg.sender, _to, _value);\n    _addTo(msg.sender, _value);\n    emit Unapprove(msg.sender, _to, _value);\n\n    return true;\n  }\n\n  function transferFrom(address _from, address _to, uint _value) public returns (bool success) {\n    require(_from != address(0));\n    require(_to != address(0));\n\n    _subtractFromAllowance(_from, msg.sender, _value);\n    _addTo(_to, _value);\n\n    emit Transfer(_from, _to, _value);\n\n    return true;\n  }\n\n  function _handleTransfer(address _from, address _to, uint _value) internal returns (bool success) {\n    require(_from != address(0));\n    require(_to != address(0));\n\n    _subtractFrom(_from, _value);\n    _addTo(_to, _value);\n\n    return true;\n  }\n\n  function _addTo(address _subject, uint _value) internal returns (bool success) {\n    _balances[_subject] = _balances[_subject].add(_value);\n\n    return true;\n  }\n\n  function _subtractFrom(address _subject, uint _value) internal returns (bool success) {\n    require(_balances[_subject] >= _value);\n    _balances[_subject] = _balances[_subject].sub(_value);\n\n    return true;\n  }\n\n  function _subtractFromAllowance(address _allocator, address _subject, uint _value) internal returns (bool success) {\n    require(_allowances[_allocator][_subject] >= _value);\n    _allowances[_allocator][_subject] = _allowances[_allocator][_subject].sub(_value);\n\n    return true;\n  }\n}\n",
  "sourcePath": "/home/guillaume/Projects/dappuniversity/next-guil-token-exchange/backend/contracts/GuilToken.sol",
  "compiler": {
    "name": "solc",
    "version": "0.8.12+commit.f00d7308.Emscripten.clang"
  },
  "schemaVersion": "3.4.4",
  "updatedAt": "2022-03-07T05:42:24.208Z",
  "networkType": "ethereum",
  "devdoc": {
    "kind": "dev",
    "methods": {},
    "version": 1
  },
  "userdoc": {
    "kind": "user",
    "methods": {},
    "version": 1
  }
}